{
  "abi": [
    {
      "type": "constructor",
      "inputs": [
        {
          "name": "_asset",
          "type": "address",
          "internalType": "contract IERC20"
        },
        {
          "name": "_basisPoints",
          "type": "uint256",
          "internalType": "uint256"
        }
      ],
      "stateMutability": "nonpayable"
    },
    {
      "type": "function",
      "name": "allowance",
      "inputs": [
        {
          "name": "owner",
          "type": "address",
          "internalType": "address"
        },
        {
          "name": "spender",
          "type": "address",
          "internalType": "address"
        }
      ],
      "outputs": [
        {
          "name": "",
          "type": "uint256",
          "internalType": "uint256"
        }
      ],
      "stateMutability": "view"
    },
    {
      "type": "function",
      "name": "approve",
      "inputs": [
        {
          "name": "spender",
          "type": "address",
          "internalType": "address"
        },
        {
          "name": "value",
          "type": "uint256",
          "internalType": "uint256"
        }
      ],
      "outputs": [
        {
          "name": "",
          "type": "bool",
          "internalType": "bool"
        }
      ],
      "stateMutability": "nonpayable"
    },
    {
      "type": "function",
      "name": "asset",
      "inputs": [],
      "outputs": [
        {
          "name": "",
          "type": "address",
          "internalType": "address"
        }
      ],
      "stateMutability": "view"
    },
    {
      "type": "function",
      "name": "balanceOf",
      "inputs": [
        {
          "name": "account",
          "type": "address",
          "internalType": "address"
        }
      ],
      "outputs": [
        {
          "name": "",
          "type": "uint256",
          "internalType": "uint256"
        }
      ],
      "stateMutability": "view"
    },
    {
      "type": "function",
      "name": "convertToAssets",
      "inputs": [
        {
          "name": "shares",
          "type": "uint256",
          "internalType": "uint256"
        }
      ],
      "outputs": [
        {
          "name": "",
          "type": "uint256",
          "internalType": "uint256"
        }
      ],
      "stateMutability": "view"
    },
    {
      "type": "function",
      "name": "convertToShares",
      "inputs": [
        {
          "name": "assets",
          "type": "uint256",
          "internalType": "uint256"
        }
      ],
      "outputs": [
        {
          "name": "",
          "type": "uint256",
          "internalType": "uint256"
        }
      ],
      "stateMutability": "view"
    },
    {
      "type": "function",
      "name": "decimals",
      "inputs": [],
      "outputs": [
        {
          "name": "",
          "type": "uint8",
          "internalType": "uint8"
        }
      ],
      "stateMutability": "view"
    },
    {
      "type": "function",
      "name": "deposit",
      "inputs": [
        {
          "name": "assets",
          "type": "uint256",
          "internalType": "uint256"
        },
        {
          "name": "receiver",
          "type": "address",
          "internalType": "address"
        }
      ],
      "outputs": [
        {
          "name": "",
          "type": "uint256",
          "internalType": "uint256"
        }
      ],
      "stateMutability": "nonpayable"
    },
    {
      "type": "function",
      "name": "entryFeeBasisPoints",
      "inputs": [],
      "outputs": [
        {
          "name": "",
          "type": "uint256",
          "internalType": "uint256"
        }
      ],
      "stateMutability": "view"
    },
    {
      "type": "function",
      "name": "maxDeposit",
      "inputs": [
        {
          "name": "",
          "type": "address",
          "internalType": "address"
        }
      ],
      "outputs": [
        {
          "name": "",
          "type": "uint256",
          "internalType": "uint256"
        }
      ],
      "stateMutability": "view"
    },
    {
      "type": "function",
      "name": "maxMint",
      "inputs": [
        {
          "name": "",
          "type": "address",
          "internalType": "address"
        }
      ],
      "outputs": [
        {
          "name": "",
          "type": "uint256",
          "internalType": "uint256"
        }
      ],
      "stateMutability": "view"
    },
    {
      "type": "function",
      "name": "maxRedeem",
      "inputs": [
        {
          "name": "owner",
          "type": "address",
          "internalType": "address"
        }
      ],
      "outputs": [
        {
          "name": "",
          "type": "uint256",
          "internalType": "uint256"
        }
      ],
      "stateMutability": "view"
    },
    {
      "type": "function",
      "name": "maxWithdraw",
      "inputs": [
        {
          "name": "owner",
          "type": "address",
          "internalType": "address"
        }
      ],
      "outputs": [
        {
          "name": "",
          "type": "uint256",
          "internalType": "uint256"
        }
      ],
      "stateMutability": "view"
    },
    {
      "type": "function",
      "name": "mint",
      "inputs": [
        {
          "name": "shares",
          "type": "uint256",
          "internalType": "uint256"
        },
        {
          "name": "receiver",
          "type": "address",
          "internalType": "address"
        }
      ],
      "outputs": [
        {
          "name": "",
          "type": "uint256",
          "internalType": "uint256"
        }
      ],
      "stateMutability": "nonpayable"
    },
    {
      "type": "function",
      "name": "name",
      "inputs": [],
      "outputs": [
        {
          "name": "",
          "type": "string",
          "internalType": "string"
        }
      ],
      "stateMutability": "view"
    },
    {
      "type": "function",
      "name": "previewDeposit",
      "inputs": [
        {
          "name": "assets",
          "type": "uint256",
          "internalType": "uint256"
        }
      ],
      "outputs": [
        {
          "name": "",
          "type": "uint256",
          "internalType": "uint256"
        }
      ],
      "stateMutability": "view"
    },
    {
      "type": "function",
      "name": "previewMint",
      "inputs": [
        {
          "name": "shares",
          "type": "uint256",
          "internalType": "uint256"
        }
      ],
      "outputs": [
        {
          "name": "",
          "type": "uint256",
          "internalType": "uint256"
        }
      ],
      "stateMutability": "view"
    },
    {
      "type": "function",
      "name": "previewRedeem",
      "inputs": [
        {
          "name": "shares",
          "type": "uint256",
          "internalType": "uint256"
        }
      ],
      "outputs": [
        {
          "name": "",
          "type": "uint256",
          "internalType": "uint256"
        }
      ],
      "stateMutability": "view"
    },
    {
      "type": "function",
      "name": "previewWithdraw",
      "inputs": [
        {
          "name": "assets",
          "type": "uint256",
          "internalType": "uint256"
        }
      ],
      "outputs": [
        {
          "name": "",
          "type": "uint256",
          "internalType": "uint256"
        }
      ],
      "stateMutability": "view"
    },
    {
      "type": "function",
      "name": "redeem",
      "inputs": [
        {
          "name": "shares",
          "type": "uint256",
          "internalType": "uint256"
        },
        {
          "name": "receiver",
          "type": "address",
          "internalType": "address"
        },
        {
          "name": "owner",
          "type": "address",
          "internalType": "address"
        }
      ],
      "outputs": [
        {
          "name": "",
          "type": "uint256",
          "internalType": "uint256"
        }
      ],
      "stateMutability": "nonpayable"
    },
    {
      "type": "function",
      "name": "symbol",
      "inputs": [],
      "outputs": [
        {
          "name": "",
          "type": "string",
          "internalType": "string"
        }
      ],
      "stateMutability": "view"
    },
    {
      "type": "function",
      "name": "totalAssets",
      "inputs": [],
      "outputs": [
        {
          "name": "",
          "type": "uint256",
          "internalType": "uint256"
        }
      ],
      "stateMutability": "view"
    },
    {
      "type": "function",
      "name": "totalSupply",
      "inputs": [],
      "outputs": [
        {
          "name": "",
          "type": "uint256",
          "internalType": "uint256"
        }
      ],
      "stateMutability": "view"
    },
    {
      "type": "function",
      "name": "transfer",
      "inputs": [
        {
          "name": "to",
          "type": "address",
          "internalType": "address"
        },
        {
          "name": "value",
          "type": "uint256",
          "internalType": "uint256"
        }
      ],
      "outputs": [
        {
          "name": "",
          "type": "bool",
          "internalType": "bool"
        }
      ],
      "stateMutability": "nonpayable"
    },
    {
      "type": "function",
      "name": "transferFrom",
      "inputs": [
        {
          "name": "from",
          "type": "address",
          "internalType": "address"
        },
        {
          "name": "to",
          "type": "address",
          "internalType": "address"
        },
        {
          "name": "value",
          "type": "uint256",
          "internalType": "uint256"
        }
      ],
      "outputs": [
        {
          "name": "",
          "type": "bool",
          "internalType": "bool"
        }
      ],
      "stateMutability": "nonpayable"
    },
    {
      "type": "function",
      "name": "transferOwnership",
      "inputs": [
        {
          "name": "newOwner",
          "type": "address",
          "internalType": "address payable"
        }
      ],
      "outputs": [],
      "stateMutability": "nonpayable"
    },
    {
      "type": "function",
      "name": "updateEntryFeeBasisPoints",
      "inputs": [
        {
          "name": "newBasisPoints",
          "type": "uint256",
          "internalType": "uint256"
        }
      ],
      "outputs": [],
      "stateMutability": "nonpayable"
    },
    {
      "type": "function",
      "name": "vaultOwner",
      "inputs": [],
      "outputs": [
        {
          "name": "",
          "type": "address",
          "internalType": "address payable"
        }
      ],
      "stateMutability": "view"
    },
    {
      "type": "function",
      "name": "withdraw",
      "inputs": [
        {
          "name": "assets",
          "type": "uint256",
          "internalType": "uint256"
        },
        {
          "name": "receiver",
          "type": "address",
          "internalType": "address"
        },
        {
          "name": "owner",
          "type": "address",
          "internalType": "address"
        }
      ],
      "outputs": [
        {
          "name": "",
          "type": "uint256",
          "internalType": "uint256"
        }
      ],
      "stateMutability": "nonpayable"
    },
    {
      "type": "event",
      "name": "Approval",
      "inputs": [
        {
          "name": "owner",
          "type": "address",
          "indexed": true,
          "internalType": "address"
        },
        {
          "name": "spender",
          "type": "address",
          "indexed": true,
          "internalType": "address"
        },
        {
          "name": "value",
          "type": "uint256",
          "indexed": false,
          "internalType": "uint256"
        }
      ],
      "anonymous": false
    },
    {
      "type": "event",
      "name": "Deposit",
      "inputs": [
        {
          "name": "sender",
          "type": "address",
          "indexed": true,
          "internalType": "address"
        },
        {
          "name": "owner",
          "type": "address",
          "indexed": true,
          "internalType": "address"
        },
        {
          "name": "assets",
          "type": "uint256",
          "indexed": false,
          "internalType": "uint256"
        },
        {
          "name": "shares",
          "type": "uint256",
          "indexed": false,
          "internalType": "uint256"
        }
      ],
      "anonymous": false
    },
    {
      "type": "event",
      "name": "EntryFeeUpdated",
      "inputs": [
        {
          "name": "oldFee",
          "type": "uint256",
          "indexed": false,
          "internalType": "uint256"
        },
        {
          "name": "newFee",
          "type": "uint256",
          "indexed": false,
          "internalType": "uint256"
        }
      ],
      "anonymous": false
    },
    {
      "type": "event",
      "name": "Transfer",
      "inputs": [
        {
          "name": "from",
          "type": "address",
          "indexed": true,
          "internalType": "address"
        },
        {
          "name": "to",
          "type": "address",
          "indexed": true,
          "internalType": "address"
        },
        {
          "name": "value",
          "type": "uint256",
          "indexed": false,
          "internalType": "uint256"
        }
      ],
      "anonymous": false
    },
    {
      "type": "event",
      "name": "Withdraw",
      "inputs": [
        {
          "name": "sender",
          "type": "address",
          "indexed": true,
          "internalType": "address"
        },
        {
          "name": "receiver",
          "type": "address",
          "indexed": true,
          "internalType": "address"
        },
        {
          "name": "owner",
          "type": "address",
          "indexed": true,
          "internalType": "address"
        },
        {
          "name": "assets",
          "type": "uint256",
          "indexed": false,
          "internalType": "uint256"
        },
        {
          "name": "shares",
          "type": "uint256",
          "indexed": false,
          "internalType": "uint256"
        }
      ],
      "anonymous": false
    },
    {
      "type": "error",
      "name": "ERC20InsufficientAllowance",
      "inputs": [
        {
          "name": "spender",
          "type": "address",
          "internalType": "address"
        },
        {
          "name": "allowance",
          "type": "uint256",
          "internalType": "uint256"
        },
        {
          "name": "needed",
          "type": "uint256",
          "internalType": "uint256"
        }
      ]
    },
    {
      "type": "error",
      "name": "ERC20InsufficientBalance",
      "inputs": [
        {
          "name": "sender",
          "type": "address",
          "internalType": "address"
        },
        {
          "name": "balance",
          "type": "uint256",
          "internalType": "uint256"
        },
        {
          "name": "needed",
          "type": "uint256",
          "internalType": "uint256"
        }
      ]
    },
    {
      "type": "error",
      "name": "ERC20InvalidApprover",
      "inputs": [
        {
          "name": "approver",
          "type": "address",
          "internalType": "address"
        }
      ]
    },
    {
      "type": "error",
      "name": "ERC20InvalidReceiver",
      "inputs": [
        {
          "name": "receiver",
          "type": "address",
          "internalType": "address"
        }
      ]
    },
    {
      "type": "error",
      "name": "ERC20InvalidSender",
      "inputs": [
        {
          "name": "sender",
          "type": "address",
          "internalType": "address"
        }
      ]
    },
    {
      "type": "error",
      "name": "ERC20InvalidSpender",
      "inputs": [
        {
          "name": "spender",
          "type": "address",
          "internalType": "address"
        }
      ]
    },
    {
      "type": "error",
      "name": "ERC4626ExceededMaxDeposit",
      "inputs": [
        {
          "name": "receiver",
          "type": "address",
          "internalType": "address"
        },
        {
          "name": "assets",
          "type": "uint256",
          "internalType": "uint256"
        },
        {
          "name": "max",
          "type": "uint256",
          "internalType": "uint256"
        }
      ]
    },
    {
      "type": "error",
      "name": "ERC4626ExceededMaxMint",
      "inputs": [
        {
          "name": "receiver",
          "type": "address",
          "internalType": "address"
        },
        {
          "name": "shares",
          "type": "uint256",
          "internalType": "uint256"
        },
        {
          "name": "max",
          "type": "uint256",
          "internalType": "uint256"
        }
      ]
    },
    {
      "type": "error",
      "name": "ERC4626ExceededMaxRedeem",
      "inputs": [
        {
          "name": "owner",
          "type": "address",
          "internalType": "address"
        },
        {
          "name": "shares",
          "type": "uint256",
          "internalType": "uint256"
        },
        {
          "name": "max",
          "type": "uint256",
          "internalType": "uint256"
        }
      ]
    },
    {
      "type": "error",
      "name": "ERC4626ExceededMaxWithdraw",
      "inputs": [
        {
          "name": "owner",
          "type": "address",
          "internalType": "address"
        },
        {
          "name": "assets",
          "type": "uint256",
          "internalType": "uint256"
        },
        {
          "name": "max",
          "type": "uint256",
          "internalType": "uint256"
        }
      ]
    },
    {
      "type": "error",
      "name": "SafeERC20FailedOperation",
      "inputs": [
        {
          "name": "token",
          "type": "address",
          "internalType": "address"
        }
      ]
    }
  ],
  "bytecode": {
    "object": "0x60c060405234801561001057600080fd5b50604051611a0f380380611a0f83398101604081905261002f916101d2565b816040518060400160405280601381526020017f44726f706c6574205661756c7420546f6b656e000000000000000000000000008152506040518060400160405280600581526020016407644524f560dc1b815250816003908161009391906102ab565b5060046100a082826102ab565b5050506000806100b5836100f660201b60201c565b91509150816100c55760126100c7565b805b60ff1660a05250506001600160a01b0316608052600580546001600160a01b03191633179055600655506103b1565b60408051600481526024810182526020810180516001600160e01b031663313ce56760e01b17905290516000918291829182916001600160a01b0387169161013d91610369565b600060405180830381855afa9150503d8060008114610178576040519150601f19603f3d011682016040523d82523d6000602084013e61017d565b606091505b509150915081801561019157506020815110155b156101c5576000818060200190518101906101ac9190610398565b905060ff81116101c3576001969095509350505050565b505b5060009485945092505050565b600080604083850312156101e557600080fd5b82516001600160a01b03811681146101fc57600080fd5b6020939093015192949293505050565b634e487b7160e01b600052604160045260246000fd5b600181811c9082168061023657607f821691505b60208210810361025657634e487b7160e01b600052602260045260246000fd5b50919050565b601f8211156102a657806000526020600020601f840160051c810160208510156102835750805b601f840160051c820191505b818110156102a3576000815560010161028f565b50505b505050565b81516001600160401b038111156102c4576102c461020c565b6102d8816102d28454610222565b8461025c565b6020601f82116001811461030c57600083156102f45750848201515b600019600385901b1c1916600184901b1784556102a3565b600084815260208120601f198516915b8281101561033c578785015182556020948501946001909201910161031c565b508482101561035a5786840151600019600387901b60f8161c191681555b50505050600190811b01905550565b6000825160005b8181101561038a5760208186018101518583015201610370565b506000920191825250919050565b6000602082840312156103aa57600080fd5b5051919050565b60805160a0516116166103f960003960006105fb0152600081816102af0152818161046c01528181610b2a01528181610ba701528181610e390152610f4a01526116166000f3fe608060405234801561001057600080fd5b50600436106101cf5760003560e01c806394bf804d11610104578063c63d75b6116100a2578063d905777e11610071578063d905777e146103e2578063dd62ed3e146103f5578063ef8b30f71461042e578063f2fde38b1461044157600080fd5b8063c63d75b6146102d3578063c6e6f592146103a7578063ce96cb77146103ba578063d57636c9146103cd57600080fd5b8063b3d7f6b9116100de578063b3d7f6b914610365578063b460af9414610378578063ba0876521461038b578063ba0af7a91461039e57600080fd5b806394bf804d1461033757806395d89b411461034a578063a9059cbb1461035257600080fd5b806323b872dd11610171578063402d267d1161014b578063402d267d146102d35780634cdad506146102e85780636e553f65146102fb57806370a082311461030e57600080fd5b806323b872dd14610280578063313ce5671461029357806338d52e0f146102ad57600080fd5b8063095ea7b3116101ad578063095ea7b3146102175780630a28a4771461023a57806318160ddd1461024d5780631f52692b1461025557600080fd5b806301e1d114146101d457806306fdde03146101ef57806307a2d13a14610204575b600080fd5b6101dc610454565b6040519081526020015b60405180910390f35b6101f76104e4565b6040516101e691906111eb565b6101dc610212366004611239565b610576565b61022a61022536600461126a565b610589565b60405190151581526020016101e6565b6101dc610248366004611239565b6105a1565b6002546101dc565b600554610268906001600160a01b031681565b6040516001600160a01b0390911681526020016101e6565b61022a61028e366004611296565b6105cf565b61029b6105f3565b60405160ff90911681526020016101e6565b7f0000000000000000000000000000000000000000000000000000000000000000610268565b6101dc6102e13660046112d7565b5060001990565b6101dc6102f6366004611239565b61061f565b6101dc6103093660046112f4565b610647565b6101dc61031c3660046112d7565b6001600160a01b031660009081526020819052604090205490565b6101dc6103453660046112f4565b61067b565b6101f7610699565b61022a61036036600461126a565b6106a8565b6101dc610373366004611239565b6106b6565b6101dc610386366004611324565b6106db565b6101dc610399366004611324565b610733565b6101dc60065481565b6101dc6103b5366004611239565b610782565b6101dc6103c83660046112d7565b61078f565b6103e06103db366004611239565b6107b3565b005b6101dc6103f03660046112d7565b61088a565b6101dc610403366004611366565b6001600160a01b03918216600090815260016020908152604080832093909416825291909152205490565b6101dc61043c366004611239565b6108a8565b6103e061044f3660046112d7565b6108c7565b6040516370a0823160e01b81523060048201526000907f00000000000000000000000000000000000000000000000000000000000000006001600160a01b0316906370a0823190602401602060405180830381865afa1580156104bb573d6000803e3d6000fd5b505050506040513d601f19601f820116820180604052508101906104df9190611394565b905090565b6060600380546104f3906113ad565b80601f016020809104026020016040519081016040528092919081815260200182805461051f906113ad565b801561056c5780601f106105415761010080835404028352916020019161056c565b820191906000526020600020905b81548152906001019060200180831161054f57829003601f168201915b5050505050905090565b6000610583826000610934565b92915050565b60003361059781858561096e565b5060019392505050565b6000806105b4836064610980565b610980565b90506105c86105c382856113fd565b6109d2565b9392505050565b6000336105dd8582856109df565b6105e8858585610a4a565b506001949350505050565b60006104df817f0000000000000000000000000000000000000000000000000000000000000000611410565b60008061062b83610576565b905061063d816064610aa9565b610aa9565b6105c89082611429565b600060001961065a565b60405180910390fd5b6000610665856108a8565b905061067333858784610ad4565b949350505050565b6000600019600061068b856106b6565b905061067333858388610ad4565b6060600480546104f3906113ad565b600033610597818585610a4a565b6000806106c283610b59565b90506106d1816105af60065490565b6105c890826113fd565b6000806106e78361078f565b90508085111561071057828582604051633fa733bb60e21b81526004016106519392919061143c565b600061071b866105a1565b905061072a3386868985610b66565b95945050505050565b60008061073f8361088a565b90508085111561076857828582604051632e52afbb60e21b81526004016106519392919061143c565b60006107738661061f565b905061072a338686848a610b66565b6000610583826000610bd4565b6001600160a01b038116600090815260208190526040812054610583906000610934565b6005546001600160a01b031633146107fe5760405162461bcd60e51b815260206004820152600e60248201526d139bdd08185d5d1a1bdc9a5e995960921b6044820152606401610651565b6103e88111156108455760405162461bcd60e51b815260206004820152601260248201527108adce8e4f240cccaca40e8dede40d0d2ced60731b6044820152606401610651565b600680549082905560408051828152602081018490527f6a75d918a59da9597a749b7c707f23cfa76552074b43c68a24a21db1c45841f1910160405180910390a15050565b6001600160a01b038116600090815260208190526040812054610583565b6000806108b88361063860065490565b90506105c86103b58285611429565b6005546001600160a01b031633146109125760405162461bcd60e51b815260206004820152600e60248201526d139bdd08185d5d1a1bdc9a5e995960921b6044820152606401610651565b600580546001600160a01b0319166001600160a01b0392909216919091179055565b60006105c8610941610454565b61094c9060016113fd565b6109586000600a611544565b60025461096591906113fd565b85919085610c04565b61097b8383836001610c48565b505050565b60008061098d8385611553565b9050612710600061099e8284611580565b90506109aa8284611594565b6000036109b85760006109bb565b60015b6109c89060ff16826113fd565b9695505050505050565b6000610583826001610bd4565b6001600160a01b038381166000908152600160209081526040808320938616835292905220546000198114610a445781811015610a3557828183604051637dc7a0d960e11b81526004016106519392919061143c565b610a4484848484036000610c48565b50505050565b6001600160a01b038316610a7457604051634b637e8f60e11b815260006004820152602401610651565b6001600160a01b038216610a9e5760405163ec442f0560e01b815260006004820152602401610651565b61097b838383610d1d565b600080610ab68385611553565b90506000610ac6612710856113fd565b9050600061099e8284611580565b6000610ae38361063860065490565b90506000610af96005546001600160a01b031690565b9050610b0786868686610e34565b600082118015610b2057506001600160a01b0381163014155b15610b5157610b517f00000000000000000000000000000000000000000000000000000000000000005b8284610eb8565b505050505050565b6000610583826001610934565b6000610b73836064610980565b90506000610b848787878787610f17565b600082118015610b9d57506001600160a01b0381163014155b15610bcb57610bcb7f0000000000000000000000000000000000000000000000000000000000000000610b4a565b50505050505050565b60006105c8610be482600a611544565b600254610bf191906113fd565b610bf9610454565b6109659060016113fd565b6000610c33610c1283610fd7565b8015610c2e575060008480610c2957610c2961156a565b868809115b151590565b610c3e868686611004565b61072a91906113fd565b6001600160a01b038416610c725760405163e602df0560e01b815260006004820152602401610651565b6001600160a01b038316610c9c57604051634a1406b160e11b815260006004820152602401610651565b6001600160a01b0380851660009081526001602090815260408083209387168352929052208290558015610a4457826001600160a01b0316846001600160a01b03167f8c5be1e5ebec7d5bd14f71427d1e84f3dd0314c0f7b2291e5b200ac8c7c3b92584604051610d0f91815260200190565b60405180910390a350505050565b6001600160a01b038316610d48578060026000828254610d3d91906113fd565b90915550610da79050565b6001600160a01b03831660009081526020819052604090205481811015610d885783818360405163391434e360e21b81526004016106519392919061143c565b6001600160a01b03841660009081526020819052604090209082900390555b6001600160a01b038216610dc357600280548290039055610de2565b6001600160a01b03821660009081526020819052604090208054820190555b816001600160a01b0316836001600160a01b03167fddf252ad1be2c89b69c2b068fc378daa952ba7f163c4a11628f55a4df523b3ef83604051610e2791815260200190565b60405180910390a3505050565b610e607f00000000000000000000000000000000000000000000000000000000000000008530856110bf565b610e6a83826110f8565b826001600160a01b0316846001600160a01b03167fdcbc1c05240f31ff3ad067ef1ee35ce4997762752e3a095284754544f4c709d78484604051610d0f929190918252602082015260400190565b6040516001600160a01b0383811660248301526044820183905261097b91859182169063a9059cbb906064015b604051602081830303815290604052915060e01b6020820180516001600160e01b038381831617835250505050611132565b826001600160a01b0316856001600160a01b031614610f3b57610f3b8386836109df565b610f4583826111a3565b610f707f00000000000000000000000000000000000000000000000000000000000000008584610eb8565b826001600160a01b0316846001600160a01b0316866001600160a01b03167ffbde797d201c681b91056529119e0b02407c7bb96a4a2c75c01fc9667232c8db8585604051610fc8929190918252602082015260400190565b60405180910390a45050505050565b60006002826003811115610fed57610fed6115a8565b610ff791906115be565b60ff166001149050919050565b600083830281600019858709828110838203039150508060000361103b578382816110315761103161156a565b04925050506105c8565b8084116110525761105260038515026011186111d9565b6000848688096000868103871696879004966002600389028118808a02820302808a02820302808a02820302808a02820302808a02820302808a02909103029181900381900460010186841190950394909402919094039290920491909117919091029150509392505050565b6040516001600160a01b038481166024830152838116604483015260648201839052610a449186918216906323b872dd90608401610ee5565b6001600160a01b0382166111225760405163ec442f0560e01b815260006004820152602401610651565b61112e60008383610d1d565b5050565b600080602060008451602086016000885af180611155576040513d6000823e3d81fd5b50506000513d9150811561116d57806001141561117a565b6001600160a01b0384163b155b15610a4457604051635274afe760e01b81526001600160a01b0385166004820152602401610651565b6001600160a01b0382166111cd57604051634b637e8f60e11b815260006004820152602401610651565b61112e82600083610d1d565b634e487b71600052806020526024601cfd5b602081526000825180602084015260005b8181101561121957602081860181015160408684010152016111fc565b506000604082850101526040601f19601f83011684010191505092915050565b60006020828403121561124b57600080fd5b5035919050565b6001600160a01b038116811461126757600080fd5b50565b6000806040838503121561127d57600080fd5b823561128881611252565b946020939093013593505050565b6000806000606084860312156112ab57600080fd5b83356112b681611252565b925060208401356112c681611252565b929592945050506040919091013590565b6000602082840312156112e957600080fd5b81356105c881611252565b6000806040838503121561130757600080fd5b82359150602083013561131981611252565b809150509250929050565b60008060006060848603121561133957600080fd5b83359250602084013561134b81611252565b9150604084013561135b81611252565b809150509250925092565b6000806040838503121561137957600080fd5b823561138481611252565b9150602083013561131981611252565b6000602082840312156113a657600080fd5b5051919050565b600181811c908216806113c157607f821691505b6020821081036113e157634e487b7160e01b600052602260045260246000fd5b50919050565b634e487b7160e01b600052601160045260246000fd5b80820180821115610583576105836113e7565b60ff8181168382160190811115610583576105836113e7565b81810381811115610583576105836113e7565b6001600160a01b039390931683526020830191909152604082015260600190565b6001815b60018411156114985780850481111561147c5761147c6113e7565b600184161561148a57908102905b60019390931c928002611461565b935093915050565b6000826114af57506001610583565b816114bc57506000610583565b81600181146114d257600281146114dc576114f8565b6001915050610583565b60ff8411156114ed576114ed6113e7565b50506001821b610583565b5060208310610133831016604e8410600b841016171561151b575081810a610583565b611528600019848461145d565b806000190482111561153c5761153c6113e7565b029392505050565b60006105c860ff8416836114a0565b8082028115828204841417610583576105836113e7565b634e487b7160e01b600052601260045260246000fd5b60008261158f5761158f61156a565b500490565b6000826115a3576115a361156a565b500690565b634e487b7160e01b600052602160045260246000fd5b600060ff8316806115d1576115d161156a565b8060ff8416069150509291505056fea2646970667358221220a5284793a8fce133ae14bf0dceedb1cfd31600a7e5c4dc03402149d853c9ef9764736f6c634300081c0033",
    "linkReferences": {}
  },
  "methodIdentifiers": {
    "allowance(address,address)": "dd62ed3e",
    "approve(address,uint256)": "095ea7b3",
    "asset()": "38d52e0f",
    "balanceOf(address)": "70a08231",
    "convertToAssets(uint256)": "07a2d13a",
    "convertToShares(uint256)": "c6e6f592",
    "decimals()": "313ce567",
    "deposit(uint256,address)": "6e553f65",
    "entryFeeBasisPoints()": "ba0af7a9",
    "maxDeposit(address)": "402d267d",
    "maxMint(address)": "c63d75b6",
    "maxRedeem(address)": "d905777e",
    "maxWithdraw(address)": "ce96cb77",
    "mint(uint256,address)": "94bf804d",
    "name()": "06fdde03",
    "previewDeposit(uint256)": "ef8b30f7",
    "previewMint(uint256)": "b3d7f6b9",
    "previewRedeem(uint256)": "4cdad506",
    "previewWithdraw(uint256)": "0a28a477",
    "redeem(uint256,address,address)": "ba087652",
    "symbol()": "95d89b41",
    "totalAssets()": "01e1d114",
    "totalSupply()": "18160ddd",
    "transfer(address,uint256)": "a9059cbb",
    "transferFrom(address,address,uint256)": "23b872dd",
    "transferOwnership(address)": "f2fde38b",
    "updateEntryFeeBasisPoints(uint256)": "d57636c9",
    "vaultOwner()": "1f52692b",
    "withdraw(uint256,address,address)": "b460af94"
  },
  "id": 44
}